S00C00004C6162352E73726563D4
S11300000C9434000C9446000C9446000C94460066
S11300100C9446000C9446000C9446000C94460044
S11300200C9446000C9446000C9446000C94460034
S11300300C9446000C9446000C9446000C94460024
S11300400C941B010C9446000C9446000C9446003E
S11300500C9446000C94CB000C9446000C9446007F
S11300600C9446000C94460011241FBECFEFD8E038
S1130070DEBFCDBF21E0A0E0B1E001C01D92A730FA
S1130080B207E1F70E94AC000C949C030C940000AE
S1130090682F70E080E090E00E94A10220E030E050
S11300A04FE753E40E9400022CEE31ED40EE52E49F
S11300B00E942F0328E431EE45E152E40E949401AA
S11300C00E947202CB010895682F70E080E090E0F6
S11300D00E94A10220E030E04FE753E40E940002B6
S11300E020E030E048EB51E40E942F0320E030E0B0
S11300F040E051E40E9494010E947202862F089508
S1130100ECE7F0E0108280818064808380818062EB
S11301108083EAE7F0E010828081806880838081B8
S11301208860808380818760808310927B00AEE743
S1130130B0E08C9182608C93808180648083089588
S1130140F89417B80E9429010E944A010E94600194
S11301500E94800078940895E1E6F0E080E88083CE
S113016082E080830E94A000809106010E944800E2
S113017090930501809304010E944501809103013D
S11301800E946400809302010E945D01809101013C
S11301900E946E01E9CF1F920F920FB60F921124A5
S11301A08F93EF93FF93EAE7F0E080818F7780836A
S11301B08091000181110FC0ECE7F0E0808187603D
S11301C080838091790080930601809100018F5F84
S11301D0809300011DC0813081F4ECE7F0E0808160
S11301E0887F81608083809179008093030180916E
S11301F000018F5F809300010BC0ECE7F0E0808189
S1130200887F80838091790080930101109200019E
S1130210EAE7F0E080818068808380818064808365
S1130220808180618083FF91EF918F910F900FBE49
S11302300F901F9018951F920F920FB60F921124D2
S11302408F938DE386BD8F910F900FBE0F901F90FB
S1130250189584B1826084B9A0E8B0E01C92E1E80A
S1130260F0E010828C9180688C938C9182608C93E6
S113027080818861808380818360808384E080932F
S1130280870081EE8093860008959093890080937F
S11302908800089584B1886084B9E0EBF0E01082AE
S11302A0A1EBB0E01C9280818068808380818360B0
S11302B080838C9186608C9308958093B300089515
S11302C08AB184608AB985B5846085BDEEE6F0E0C4
S11302D08081816080838DE386BD0895682F70E0FE
S11302E080E090E00E94A10220E030E04FE753E478
S11302F00E94000220E030E042E453E40E942F0315
S113030020E030E044E752E40E9494010E9472022B
S113031086B5681720F08BB184608BB908958BB1D2
S11303208B7F8BB908955058BB27AA270E94AB0135
S11303300C94F5020E94E70238F00E94EE0220F0CD
S113034039F49F3F19F426F40C94E4020EF4E0957A
S1130350E7FB0C94DE02E92F0E94060358F3BA1758
S1130360620773078407950720F079F4A6F50C94C7
S113037028030EF4E0950B2EBA2FA02D0B01B90122
S113038090010C01CA01A0011124FF27591B99F007
S1130390593F50F4503E68F11A16F040A22F232F13
S11303A0342F4427585FF3CF469537952795A79563
S11303B0F0405395C9F77EF41F16BA0B620B730B0A
S11303C0840BBAF09150A1F0FF0FBB1F661F771F7B
S11303D0881FC2F70EC0BA0F621F731F841F48F430
S11303E0879577956795B795F7959E3F08F0B0CFB9
S11303F09395880F08F09927EE0F979587950895A0
S11304000E9414020C94F5020E94EE0258F00E941D
S1130410E70240F029F45F3F29F00C94DE02511109
S11304200C9429030C94E4020E94060368F39923B4
S1130430B1F3552391F3951B550BBB27AA276217DC
S11304407307840738F09F5F5F4F220F331F441FE9
S1130450AA1FA9F335D00E2E3AF0E0E832D091501D
S11304605040E695001CCAF72BD0FE2F29D0660F0A
S1130470771F881FBB1F261737074807AB07B0E84D
S113048009F0BB0B802DBF01FF2793585F4F3AF053
S11304909E3F510578F00C94DE020C9429035F3FD3
S11304A0E4F3983ED4F3869577956795B795F795D9
S11304B09F5FC9F7880F911D9695879597F90895C1
S11304C0E1E0660F771F881FBB1F6217730784075D
S11304D0BA0720F0621B730B840BBA0BEE1F88F76C
S11304E0E09508950E940E0388F09F5798F0B92F65
S11304F09927B751B0F0E1F0660F771F881F991F55
S11305001AF0BA95C9F714C0B13091F00E942803CB
S1130510B1E008950C942803672F782F8827B85FDB
S113052039F0B93FCCF3869577956795B395D9F7AC
S11305303EF490958095709561957F4F8F4F9F4FB6
S11305400895E89409C097FB3EF4909580957095C2
S113055061957F4F8F4F9F4F9923A9F0F92F96E90B
S1130560BB279395F695879577956795B795F11180
S1130570F8CFFAF4BB0F11F460FF1BC06F5F7F4F1D
S11305808F4F9F4F16C0882311F096E911C077232F
S113059021F09EE8872F762F05C0662371F096E838
S11305A0862F70E060E02AF09A95660F771F881F07
S11305B0DAF7880F9695879597F9089597F99F67C5
S11305C080E870E060E008959FEF80EC08950024D7
S11305D00A941616170618060906089500240A94A4
S11305E012161306140605060895092E0394000C2A
S11305F011F4882352F0BB0F40F4BF2B11F460FFB9
S113060004C06F5F7F4F8F4F9F4F089557FD9058E1
S1130610440F551F59F05F3F71F04795880F97FBC2
S1130620991F61F09F3F79F087950895121613067C
S11306301406551FF2CF4695F1DF08C016161706AB
S11306401806991FF1CF86957105610508940895E0
S1130650E894BB2766277727CB0197F908950E9472
S113066042030C94F5020E94E70238F00E94EE0265
S113067020F0952311F00C94DE020C94E402112472
S11306800C9429030E94060370F3959FC1F3950F00
S113069050E0551F629FF001729FBB27F00DB11D02
S11306A0639FAA27F00DB11DAA1F649F6627B00D92
S11306B0A11D661F829F2227B00DA11D621F739F7B
S11306C0B00DA11D621F839FA00D611D221F749F89
S11306D03327A00D611D231F849F600D211D822FD0
S11306E0762F6A2F11249F5750409AF0F1F08823F7
S11306F04AF0EE0FFF1FBB1F661F771F881F915024
S11307005040A9F79E3F510580F00C94DE020C94F2
S113071029035F3FE4F3983ED4F386957795679574
S1130720B795F795E7959F5FC1F7FE2B880F911D4D
S10F07309695879597F90895F894FFCFEB
S9030000FC
