S00C00004C6162352E73726563D4
S11300000C9434000C9446000C9446000C94460066
S11300100C9446000C9446000C9446000C94460044
S11300200C9446000C9446000C9446000C94460034
S11300300C9446000C9446000C9446000C94460024
S11300400C9446000C9446000C9446000C94460014
S11300500C9446000C9499000C9446000C944600B1
S11300600C9446000C94460011241FBECFEFD8E038
S1130070DEBFCDBF21E0A0E0B1E001C01D92A330FE
S1130080B207E1F70E948C000C94D3020C94000098
S1130090682F70E080E090E00E94D80120E030E01A
S11300A04FE753E40E9437012DEC3CEC49E752E45E
S11300B00E9466022DEC3CEC49E752E40E94CB001E
S11300C00E94A901CB010895ECE7F0E01082808141
S11300D08064808380818062808380818760808364
S11300E0EAE7F0E0108280E8808380818062808388
S11300F080818860808380818760808310927B0008
S11301008081806480830895F89417B80E94A900C0
S11301100E946400789408950E94840080910201F2
S11301200E94480090930101809300010E94C50041
S1130130F5CF1F920F920FB60F9211248F938091D7
S11301407900809302018F910F900FBE0F901F9042
S1130150189584B1826084B9A0E8B0E01C92E1E80B
S1130160F0E010828C9180688C938C9182608C93E7
S113017080818861808380818460808381EE809324
S1130180840084E080938500089580938800909390
S1130190890008955058BB27AA270E94E2000C94B6
S11301A02C020E941E0238F00E94250220F039F42D
S11301B09F3F19F426F40C941B020EF4E095E7FB20
S11301C00C941502E92F0E943D0258F3BA176207F6
S11301D073078407950720F079F4A6F50C945F0261
S11301E00EF4E0950B2EBA2FA02D0B01B90190014E
S11301F00C01CA01A0011124FF27591B99F0593F92
S113020050F4503E68F11A16F040A22F232F342FD9
S11302104427585FF3CF469537952795A795F04027
S11302205395C9F77EF41F16BA0B620B730B840B3C
S1130230BAF09150A1F0FF0FBB1F661F771F881FF4
S1130240C2F70EC0BA0F621F731F841F48F487954C
S113025077956795B795F7959E3F08F0B0CF93953E
S1130260880F08F09927EE0F9795879508950E94B7
S11302704B010C942C020E94250258F00E941E028D
S113028040F029F45F3F29F00C94150251110C94AD
S113029060020C941B020E943D0268F39923B1F39F
S11302A0552391F3951B550BBB27AA276217730798
S11302B0840738F09F5F5F4F220F331F441FAA1F2C
S11302C0A9F335D00E2E3AF0E0E832D091505040E8
S11302D0E695001CCAF72BD0FE2F29D0660F771F96
S11302E0881FBB1F261737074807AB07B0E809F07C
S11302F0BB0B802DBF01FF2793585F4F3AF09E3F01
S1130300510578F00C9415020C9460025F3FE4F3FD
S1130310983ED4F3869577956795B795F7959F5F43
S1130320C9F7880F911D9695879597F90895E1E08F
S1130330660F771F881FBB1F621773078407BA07EE
S113034020F0621B730B840BBA0BEE1F88F7E09549
S113035008950E94450288F09F5798F0B92F992775
S1130360B751B0F0E1F0660F771F881F991F1AF09C
S1130370BA95C9F714C0B13091F00E945F02B1E0A0
S113038008950C945F02672F782F8827B85F39F09F
S1130390B93FCCF3869577956795B395D9F73EF435
S11303A090958095709561957F4F8F4F9F4F0895DD
S11303B0E89409C097FB3EF49095809570956195FB
S11303C07F4F8F4F9F4F9923A9F0F92F96E9BB27B1
S11303D09395F695879577956795B795F111F8CF2D
S11303E0FAF4BB0F11F460FF1BC06F5F7F4F8F4F98
S11303F09F4F16C0882311F096E911C0772321F08E
S11304009EE8872F762F05C0662371F096E8862F25
S113041070E060E02AF09A95660F771F881FDAF77C
S1130420880F9695879597F9089597F99F6780E8BF
S113043070E060E008959FEF80EC089500240A9432
S11304401616170618060906089500240A941216AB
S11304501306140605060895092E0394000C11F4DE
S1130460882352F0BB0F40F4BF2B11F460FF04C08B
S11304706F5F7F4F8F4F9F4F089557FD9058440FE4
S1130480551F59F05F3F71F04795880F97FB991FEF
S113049061F09F3F79F087950895121613061406AC
S11304A0551FF2CF4695F1DF08C016161706180639
S11304B0991FF1CF86957105610508940895E89414
S11304C0BB2766277727CB0197F908950E94790205
S11304D00C942C020E941E0238F00E94250220F087
S11304E0952311F00C9415020C941B0211240C9406
S11304F060020E943D0270F3959FC1F3950F50E096
S1130500551F629FF001729FBB27F00DB11D639FC1
S1130510AA27F00DB11DAA1F649F6627B00DA11D67
S1130520661F829F2227B00DA11D621F739FB00D0D
S1130530A11D621F839FA00D611D221F749F33277D
S1130540A00D611D231F849F600D211D822F762F16
S11305506A2F11249F5750409AF0F1F088234AF0F3
S1130560EE0FFF1FBB1F661F771F881F915050405F
S1130570A9F79E3F510580F00C9415020C9460027B
S11305805F3FE4F3983ED4F3869577956795B795E6
S1130590F795E7959F5FC1F7FE2B880F911D969500
S10D05A0879597F90895F894FFCFAA
S9030000FC
